{
  "_format": "hh-sol-artifact-1",
  "contractName": "NFTSTORE",
  "sourceName": "contracts/NFTSTORE.sol",
  "address": "0x27f6fA05644FF639cc5F992cDbD7b7fedfd4648e",
  "abi": [
    {
      "inputs": [],
      "stateMutability": "nonpayable",
      "type": "constructor"
    },
    {
      "inputs": [
        {
          "internalType": "address",
          "name": "sender",
          "type": "address"
        },
        {
          "internalType": "uint256",
          "name": "tokenId",
          "type": "uint256"
        },
        {
          "internalType": "address",
          "name": "owner",
          "type": "address"
        }
      ],
      "name": "ERC721IncorrectOwner",
      "type": "error"
    },
    {
      "inputs": [
        {
          "internalType": "address",
          "name": "operator",
          "type": "address"
        },
        {
          "internalType": "uint256",
          "name": "tokenId",
          "type": "uint256"
        }
      ],
      "name": "ERC721InsufficientApproval",
      "type": "error"
    },
    {
      "inputs": [
        {
          "internalType": "address",
          "name": "approver",
          "type": "address"
        }
      ],
      "name": "ERC721InvalidApprover",
      "type": "error"
    },
    {
      "inputs": [
        {
          "internalType": "address",
          "name": "operator",
          "type": "address"
        }
      ],
      "name": "ERC721InvalidOperator",
      "type": "error"
    },
    {
      "inputs": [
        {
          "internalType": "address",
          "name": "owner",
          "type": "address"
        }
      ],
      "name": "ERC721InvalidOwner",
      "type": "error"
    },
    {
      "inputs": [
        {
          "internalType": "address",
          "name": "receiver",
          "type": "address"
        }
      ],
      "name": "ERC721InvalidReceiver",
      "type": "error"
    },
    {
      "inputs": [
        {
          "internalType": "address",
          "name": "sender",
          "type": "address"
        }
      ],
      "name": "ERC721InvalidSender",
      "type": "error"
    },
    {
      "inputs": [
        {
          "internalType": "uint256",
          "name": "tokenId",
          "type": "uint256"
        }
      ],
      "name": "ERC721NonexistentToken",
      "type": "error"
    },
    {
      "anonymous": false,
      "inputs": [
        {
          "indexed": true,
          "internalType": "address",
          "name": "owner",
          "type": "address"
        },
        {
          "indexed": true,
          "internalType": "address",
          "name": "approved",
          "type": "address"
        },
        {
          "indexed": true,
          "internalType": "uint256",
          "name": "tokenId",
          "type": "uint256"
        }
      ],
      "name": "Approval",
      "type": "event"
    },
    {
      "anonymous": false,
      "inputs": [
        {
          "indexed": true,
          "internalType": "address",
          "name": "owner",
          "type": "address"
        },
        {
          "indexed": true,
          "internalType": "address",
          "name": "operator",
          "type": "address"
        },
        {
          "indexed": false,
          "internalType": "bool",
          "name": "approved",
          "type": "bool"
        }
      ],
      "name": "ApprovalForAll",
      "type": "event"
    },
    {
      "anonymous": false,
      "inputs": [
        {
          "indexed": false,
          "internalType": "uint256",
          "name": "_fromTokenId",
          "type": "uint256"
        },
        {
          "indexed": false,
          "internalType": "uint256",
          "name": "_toTokenId",
          "type": "uint256"
        }
      ],
      "name": "BatchMetadataUpdate",
      "type": "event"
    },
    {
      "anonymous": false,
      "inputs": [
        {
          "indexed": false,
          "internalType": "uint256",
          "name": "_tokenId",
          "type": "uint256"
        }
      ],
      "name": "MetadataUpdate",
      "type": "event"
    },
    {
      "anonymous": false,
      "inputs": [
        {
          "indexed": true,
          "internalType": "address",
          "name": "from",
          "type": "address"
        },
        {
          "indexed": true,
          "internalType": "address",
          "name": "to",
          "type": "address"
        },
        {
          "indexed": true,
          "internalType": "uint256",
          "name": "tokenId",
          "type": "uint256"
        }
      ],
      "name": "Transfer",
      "type": "event"
    },
    {
      "inputs": [
        {
          "internalType": "address",
          "name": "to",
          "type": "address"
        },
        {
          "internalType": "uint256",
          "name": "tokenId",
          "type": "uint256"
        }
      ],
      "name": "approve",
      "outputs": [],
      "stateMutability": "nonpayable",
      "type": "function"
    },
    {
      "inputs": [
        {
          "internalType": "address",
          "name": "owner",
          "type": "address"
        }
      ],
      "name": "balanceOf",
      "outputs": [
        {
          "internalType": "uint256",
          "name": "",
          "type": "uint256"
        }
      ],
      "stateMutability": "view",
      "type": "function"
    },
    {
      "inputs": [
        {
          "internalType": "string",
          "name": "_tokenURI",
          "type": "string"
        },
        {
          "internalType": "uint256",
          "name": "_price",
          "type": "uint256"
        }
      ],
      "name": "createToken",
      "outputs": [
        {
          "internalType": "uint256",
          "name": "",
          "type": "uint256"
        }
      ],
      "stateMutability": "nonpayable",
      "type": "function"
    },
    {
      "inputs": [
        {
          "internalType": "uint256",
          "name": "tokenId",
          "type": "uint256"
        }
      ],
      "name": "executeSale",
      "outputs": [],
      "stateMutability": "payable",
      "type": "function"
    },
    {
      "inputs": [],
      "name": "getAllListedNFTs",
      "outputs": [
        {
          "components": [
            {
              "internalType": "uint256",
              "name": "tokenId",
              "type": "uint256"
            },
            {
              "internalType": "address payable",
              "name": "owner",
              "type": "address"
            },
            {
              "internalType": "address payable",
              "name": "seller",
              "type": "address"
            },
            {
              "internalType": "uint256",
              "name": "price",
              "type": "uint256"
            },
            {
              "internalType": "bool",
              "name": "isListed",
              "type": "bool"
            }
          ],
          "internalType": "struct NFTSTORE.NFTListing[]",
          "name": "",
          "type": "tuple[]"
        }
      ],
      "stateMutability": "view",
      "type": "function"
    },
    {
      "inputs": [
        {
          "internalType": "uint256",
          "name": "tokenId",
          "type": "uint256"
        }
      ],
      "name": "getApproved",
      "outputs": [
        {
          "internalType": "address",
          "name": "",
          "type": "address"
        }
      ],
      "stateMutability": "view",
      "type": "function"
    },
    {
      "inputs": [],
      "name": "getCurrentTokenId",
      "outputs": [
        {
          "internalType": "uint256",
          "name": "",
          "type": "uint256"
        }
      ],
      "stateMutability": "view",
      "type": "function"
    },
    {
      "inputs": [],
      "name": "getListingFeePercent",
      "outputs": [
        {
          "internalType": "uint256",
          "name": "",
          "type": "uint256"
        }
      ],
      "stateMutability": "view",
      "type": "function"
    },
    {
      "inputs": [],
      "name": "getMyNFTs",
      "outputs": [
        {
          "components": [
            {
              "internalType": "uint256",
              "name": "tokenId",
              "type": "uint256"
            },
            {
              "internalType": "address payable",
              "name": "owner",
              "type": "address"
            },
            {
              "internalType": "address payable",
              "name": "seller",
              "type": "address"
            },
            {
              "internalType": "uint256",
              "name": "price",
              "type": "uint256"
            },
            {
              "internalType": "bool",
              "name": "isListed",
              "type": "bool"
            }
          ],
          "internalType": "struct NFTSTORE.NFTListing[]",
          "name": "",
          "type": "tuple[]"
        }
      ],
      "stateMutability": "view",
      "type": "function"
    },
    {
      "inputs": [
        {
          "internalType": "uint256",
          "name": "_tokenId",
          "type": "uint256"
        }
      ],
      "name": "getNFTListing",
      "outputs": [
        {
          "components": [
            {
              "internalType": "uint256",
              "name": "tokenId",
              "type": "uint256"
            },
            {
              "internalType": "address payable",
              "name": "owner",
              "type": "address"
            },
            {
              "internalType": "address payable",
              "name": "seller",
              "type": "address"
            },
            {
              "internalType": "uint256",
              "name": "price",
              "type": "uint256"
            },
            {
              "internalType": "bool",
              "name": "isListed",
              "type": "bool"
            }
          ],
          "internalType": "struct NFTSTORE.NFTListing",
          "name": "",
          "type": "tuple"
        }
      ],
      "stateMutability": "view",
      "type": "function"
    },
    {
      "inputs": [
        {
          "internalType": "address",
          "name": "owner",
          "type": "address"
        },
        {
          "internalType": "address",
          "name": "operator",
          "type": "address"
        }
      ],
      "name": "isApprovedForAll",
      "outputs": [
        {
          "internalType": "bool",
          "name": "",
          "type": "bool"
        }
      ],
      "stateMutability": "view",
      "type": "function"
    },
    {
      "inputs": [],
      "name": "listingFeePercent",
      "outputs": [
        {
          "internalType": "uint256",
          "name": "",
          "type": "uint256"
        }
      ],
      "stateMutability": "view",
      "type": "function"
    },
    {
      "inputs": [],
      "name": "marketplaceOwner",
      "outputs": [
        {
          "internalType": "address payable",
          "name": "",
          "type": "address"
        }
      ],
      "stateMutability": "view",
      "type": "function"
    },
    {
      "inputs": [],
      "name": "name",
      "outputs": [
        {
          "internalType": "string",
          "name": "",
          "type": "string"
        }
      ],
      "stateMutability": "view",
      "type": "function"
    },
    {
      "inputs": [
        {
          "internalType": "uint256",
          "name": "tokenId",
          "type": "uint256"
        }
      ],
      "name": "ownerOf",
      "outputs": [
        {
          "internalType": "address",
          "name": "",
          "type": "address"
        }
      ],
      "stateMutability": "view",
      "type": "function"
    },
    {
      "inputs": [
        {
          "internalType": "address",
          "name": "from",
          "type": "address"
        },
        {
          "internalType": "address",
          "name": "to",
          "type": "address"
        },
        {
          "internalType": "uint256",
          "name": "tokenId",
          "type": "uint256"
        }
      ],
      "name": "safeTransferFrom",
      "outputs": [],
      "stateMutability": "nonpayable",
      "type": "function"
    },
    {
      "inputs": [
        {
          "internalType": "address",
          "name": "from",
          "type": "address"
        },
        {
          "internalType": "address",
          "name": "to",
          "type": "address"
        },
        {
          "internalType": "uint256",
          "name": "tokenId",
          "type": "uint256"
        },
        {
          "internalType": "bytes",
          "name": "data",
          "type": "bytes"
        }
      ],
      "name": "safeTransferFrom",
      "outputs": [],
      "stateMutability": "nonpayable",
      "type": "function"
    },
    {
      "inputs": [
        {
          "internalType": "address",
          "name": "operator",
          "type": "address"
        },
        {
          "internalType": "bool",
          "name": "approved",
          "type": "bool"
        }
      ],
      "name": "setApprovalForAll",
      "outputs": [],
      "stateMutability": "nonpayable",
      "type": "function"
    },
    {
      "inputs": [
        {
          "internalType": "bytes4",
          "name": "interfaceId",
          "type": "bytes4"
        }
      ],
      "name": "supportsInterface",
      "outputs": [
        {
          "internalType": "bool",
          "name": "",
          "type": "bool"
        }
      ],
      "stateMutability": "view",
      "type": "function"
    },
    {
      "inputs": [],
      "name": "symbol",
      "outputs": [
        {
          "internalType": "string",
          "name": "",
          "type": "string"
        }
      ],
      "stateMutability": "view",
      "type": "function"
    },
    {
      "inputs": [
        {
          "internalType": "uint256",
          "name": "tokenId",
          "type": "uint256"
        }
      ],
      "name": "tokenURI",
      "outputs": [
        {
          "internalType": "string",
          "name": "",
          "type": "string"
        }
      ],
      "stateMutability": "view",
      "type": "function"
    },
    {
      "inputs": [
        {
          "internalType": "address",
          "name": "from",
          "type": "address"
        },
        {
          "internalType": "address",
          "name": "to",
          "type": "address"
        },
        {
          "internalType": "uint256",
          "name": "tokenId",
          "type": "uint256"
        }
      ],
      "name": "transferFrom",
      "outputs": [],
      "stateMutability": "nonpayable",
      "type": "function"
    },
    {
      "inputs": [
        {
          "internalType": "uint256",
          "name": "_listingFeePercent",
          "type": "uint256"
        }
      ],
      "name": "updateListingFeePercent",
      "outputs": [],
      "stateMutability": "nonpayable",
      "type": "function"
    }
  ],
  "bytecode": "0x608060405260146008553480156200001657600080fd5b506040518060400160405280600881526020017f4e465453544f52450000000000000000000000000000000000000000000000008152506040518060400160405280600481526020017f4e4654530000000000000000000000000000000000000000000000000000000081525081600090816200009491906200036a565b508060019081620000a691906200036a565b50505033600760006101000a81548173ffffffffffffffffffffffffffffffffffffffff021916908373ffffffffffffffffffffffffffffffffffffffff16021790555062000451565b600081519050919050565b7f4e487b7100000000000000000000000000000000000000000000000000000000600052604160045260246000fd5b7f4e487b7100000000000000000000000000000000000000000000000000000000600052602260045260246000fd5b600060028204905060018216806200017257607f821691505b6020821081036200018857620001876200012a565b5b50919050565b60008190508160005260206000209050919050565b60006020601f8301049050919050565b600082821b905092915050565b600060088302620001f27fffffffffffffffffffffffffffffffffffffffffffffffffffffffffffffffff82620001b3565b620001fe8683620001b3565b95508019841693508086168417925050509392505050565b6000819050919050565b6000819050919050565b60006200024b620002456200023f8462000216565b62000220565b62000216565b9050919050565b6000819050919050565b62000267836200022a565b6200027f620002768262000252565b848454620001c0565b825550505050565b600090565b6200029662000287565b620002a38184846200025c565b505050565b5b81811015620002cb57620002bf6000826200028c565b600181019050620002a9565b5050565b601f8211156200031a57620002e4816200018e565b620002ef84620001a3565b81016020851015620002ff578190505b620003176200030e85620001a3565b830182620002a8565b50505b505050565b600082821c905092915050565b60006200033f600019846008026200031f565b1980831691505092915050565b60006200035a83836200032c565b9150826002028217905092915050565b6200037582620000f0565b67ffffffffffffffff811115620003915762000390620000fb565b5b6200039d825462000159565b620003aa828285620002cf565b600060209050601f831160018114620003e25760008415620003cd578287015190505b620003d985826200034c565b86555062000449565b601f198416620003f2866200018e565b60005b828110156200041c57848901518255600182019150602085019450602081019050620003f5565b868310156200043c578489015162000438601f8916826200032c565b8355505b6001600288020188555050505b505050505050565b6138a780620004616000396000f3fe6080604052600436106101405760003560e01c8063629cb2e4116100b65780639b1225c41161006f5780639b1225c414610486578063a22cb465146104a2578063ac6a9185146104cb578063b88d4fde146104f4578063c87b56dd1461051d578063e985e9c51461055a57610140565b8063629cb2e41461034e5780636352211e14610379578063650025a0146103b657806370a08231146103e157806372b3b6201461041e57806395d89b411461045b57610140565b80630ea59c4b116101085780630ea59c4b1461023e57806323b872dd1461027b57806342842e0e146102a45780634b58ffaa146102cd57806356189236146102f85780636151ff2e1461032357610140565b806301ffc9a71461014557806306fc12451461018257806306fdde03146101ad578063081812fc146101d8578063095ea7b314610215575b600080fd5b34801561015157600080fd5b5061016c60048036038101906101679190612840565b610597565b6040516101799190612888565b60405180910390f35b34801561018e57600080fd5b506101976105f8565b6040516101a491906128bc565b60405180910390f35b3480156101b957600080fd5b506101c2610602565b6040516101cf9190612967565b60405180910390f35b3480156101e457600080fd5b506101ff60048036038101906101fa91906129b5565b610694565b60405161020c9190612a23565b60405180910390f35b34801561022157600080fd5b5061023c60048036038101906102379190612a6a565b6106b0565b005b34801561024a57600080fd5b50610265600480360381019061026091906129b5565b6106c6565b6040516102729190612b51565b60405180910390f35b34801561028757600080fd5b506102a2600480360381019061029d9190612b6c565b6107ce565b005b3480156102b057600080fd5b506102cb60048036038101906102c69190612b6c565b6108d0565b005b3480156102d957600080fd5b506102e26108f0565b6040516102ef9190612cd6565b60405180910390f35b34801561030457600080fd5b5061030d610b48565b60405161031a91906128bc565b60405180910390f35b34801561032f57600080fd5b50610338610b52565b60405161034591906128bc565b60405180910390f35b34801561035a57600080fd5b50610363610b58565b6040516103709190612cd6565b60405180910390f35b34801561038557600080fd5b506103a0600480360381019061039b91906129b5565b610f21565b6040516103ad9190612a23565b60405180910390f35b3480156103c257600080fd5b506103cb610f33565b6040516103d89190612d07565b60405180910390f35b3480156103ed57600080fd5b5061040860048036038101906104039190612d22565b610f59565b60405161041591906128bc565b60405180910390f35b34801561042a57600080fd5b5061044560048036038101906104409190612e84565b611013565b60405161045291906128bc565b60405180910390f35b34801561046757600080fd5b5061047061109e565b60405161047d9190612967565b60405180910390f35b6104a0600480360381019061049b91906129b5565b611130565b005b3480156104ae57600080fd5b506104c960048036038101906104c49190612f0c565b611342565b005b3480156104d757600080fd5b506104f260048036038101906104ed91906129b5565b611358565b005b34801561050057600080fd5b5061051b60048036038101906105169190612fed565b6113f2565b005b34801561052957600080fd5b50610544600480360381019061053f91906129b5565b61140f565b6040516105519190612967565b60405180910390f35b34801561056657600080fd5b50610581600480360381019061057c9190613070565b611522565b60405161058e9190612888565b60405180910390f35b6000634906490660e01b7bffffffffffffffffffffffffffffffffffffffffffffffffffffffff1916827bffffffffffffffffffffffffffffffffffffffffffffffffffffffff191614806105f157506105f0826115b6565b5b9050919050565b6000600854905090565b606060008054610611906130df565b80601f016020809104026020016040519081016040528092919081815260200182805461063d906130df565b801561068a5780601f1061065f5761010080835404028352916020019161068a565b820191906000526020600020905b81548152906001019060200180831161066d57829003601f168201915b5050505050905090565b600061069f82611698565b506106a982611720565b9050919050565b6106c282826106bd61175d565b611765565b5050565b6106ce612777565b600b60008381526020019081526020016000206040518060a0016040529081600082015481526020016001820160009054906101000a900473ffffffffffffffffffffffffffffffffffffffff1673ffffffffffffffffffffffffffffffffffffffff1673ffffffffffffffffffffffffffffffffffffffff1681526020016002820160009054906101000a900473ffffffffffffffffffffffffffffffffffffffff1673ffffffffffffffffffffffffffffffffffffffff1673ffffffffffffffffffffffffffffffffffffffff168152602001600382015481526020016004820160009054906101000a900460ff1615151515815250509050919050565b600073ffffffffffffffffffffffffffffffffffffffff168273ffffffffffffffffffffffffffffffffffffffff16036108405760006040517f64a0ae920000000000000000000000000000000000000000000000000000000081526004016108379190612a23565b60405180910390fd5b6000610854838361084f61175d565b611777565b90508373ffffffffffffffffffffffffffffffffffffffff168173ffffffffffffffffffffffffffffffffffffffff16146108ca578382826040517f64283d7b0000000000000000000000000000000000000000000000000000000081526004016108c193929190613110565b60405180910390fd5b50505050565b6108eb838383604051806020016040528060008152506113f2565b505050565b60606000600954905060008060005b8381101561095857600b60006001836109189190613176565b815260200190815260200160002060040160009054906101000a900460ff161561094b578280610947906131aa565b9350505b80806001019150506108ff565b5060008267ffffffffffffffff81111561097557610974612d59565b5b6040519080825280602002602001820160405280156109ae57816020015b61099b612777565b8152602001906001900390816109935790505b50905060005b84811015610b3d57600b60006001836109cd9190613176565b815260200190815260200160002060040160009054906101000a900460ff1615610b30576000600182610a009190613176565b90506000600b60008381526020019081526020016000209050806040518060a0016040529081600082015481526020016001820160009054906101000a900473ffffffffffffffffffffffffffffffffffffffff1673ffffffffffffffffffffffffffffffffffffffff1673ffffffffffffffffffffffffffffffffffffffff1681526020016002820160009054906101000a900473ffffffffffffffffffffffffffffffffffffffff1673ffffffffffffffffffffffffffffffffffffffff1673ffffffffffffffffffffffffffffffffffffffff168152602001600382015481526020016004820160009054906101000a900460ff161515151581525050848681518110610b1357610b126131f2565b5b6020026020010181905250600185610b2b9190613176565b945050505b80806001019150506109b4565b508094505050505090565b6000600954905090565b60085481565b60606000600954905060008060005b83811015610c79573373ffffffffffffffffffffffffffffffffffffffff16600b6000600184610b979190613176565b815260200190815260200160002060010160009054906101000a900473ffffffffffffffffffffffffffffffffffffffff1673ffffffffffffffffffffffffffffffffffffffff161480610c5857503373ffffffffffffffffffffffffffffffffffffffff16600b6000600184610c0e9190613176565b815260200190815260200160002060020160009054906101000a900473ffffffffffffffffffffffffffffffffffffffff1673ffffffffffffffffffffffffffffffffffffffff16145b15610c6c578280610c68906131aa565b9350505b8080600101915050610b67565b5060008267ffffffffffffffff811115610c9657610c95612d59565b5b604051908082528060200260200182016040528015610ccf57816020015b610cbc612777565b815260200190600190039081610cb45790505b50905060005b84811015610f16573373ffffffffffffffffffffffffffffffffffffffff16600b6000600184610d059190613176565b815260200190815260200160002060010160009054906101000a900473ffffffffffffffffffffffffffffffffffffffff1673ffffffffffffffffffffffffffffffffffffffff161480610dc657503373ffffffffffffffffffffffffffffffffffffffff16600b6000600184610d7c9190613176565b815260200190815260200160002060020160009054906101000a900473ffffffffffffffffffffffffffffffffffffffff1673ffffffffffffffffffffffffffffffffffffffff16145b15610f09576000600182610dda9190613176565b90506000600b60008381526020019081526020016000209050806040518060a0016040529081600082015481526020016001820160009054906101000a900473ffffffffffffffffffffffffffffffffffffffff1673ffffffffffffffffffffffffffffffffffffffff1673ffffffffffffffffffffffffffffffffffffffff1681526020016002820160009054906101000a900473ffffffffffffffffffffffffffffffffffffffff1673ffffffffffffffffffffffffffffffffffffffff1673ffffffffffffffffffffffffffffffffffffffff168152602001600382015481526020016004820160009054906101000a900460ff161515151581525050848681518110610eed57610eec6131f2565b5b60200260200101819052508480610f03906131aa565b95505050505b8080600101915050610cd5565b508094505050505090565b6000610f2c82611698565b9050919050565b600760009054906101000a900473ffffffffffffffffffffffffffffffffffffffff1681565b60008073ffffffffffffffffffffffffffffffffffffffff168273ffffffffffffffffffffffffffffffffffffffff1603610fcc5760006040517f89c62b64000000000000000000000000000000000000000000000000000000008152600401610fc39190612a23565b60405180910390fd5b600360008373ffffffffffffffffffffffffffffffffffffffff1673ffffffffffffffffffffffffffffffffffffffff168152602001908152602001600020549050919050565b6000808211611057576040517f08c379a000000000000000000000000000000000000000000000000000000000815260040161104e9061326d565b60405180910390fd5b6009600081548092919061106a906131aa565b9190505550600060095490506110803382611991565b61108a81856119af565b6110948184611a0b565b8091505092915050565b6060600180546110ad906130df565b80601f01602080910402602001604051908101604052809291908181526020018280546110d9906130df565b80156111265780601f106110fb57610100808354040283529160200191611126565b820191906000526020600020905b81548152906001019060200180831161110957829003601f168201915b5050505050905090565b6000600b6000838152602001908152602001600020905060008160030154905060008260020160009054906101000a900473ffffffffffffffffffffffffffffffffffffffff1690508134146111bb576040517f08c379a00000000000000000000000000000000000000000000000000000000081526004016111b2906132ff565b60405180910390fd5b338360020160006101000a81548173ffffffffffffffffffffffffffffffffffffffff021916908373ffffffffffffffffffffffffffffffffffffffff16021790555060008360040160006101000a81548160ff021916908315150217905550600a600081548092919061122e906131aa565b91905055506112628360010160009054906101000a900473ffffffffffffffffffffffffffffffffffffffff163386611b3d565b6000606460085484611274919061331f565b61127e9190613390565b9050600760009054906101000a900473ffffffffffffffffffffffffffffffffffffffff1673ffffffffffffffffffffffffffffffffffffffff166108fc829081150290604051600060405180830381858888f193505050501580156112e8573d6000803e3d6000fd5b508173ffffffffffffffffffffffffffffffffffffffff166108fc823461130f91906133c1565b9081150290604051600060405180830381858888f1935050505015801561133a573d6000803e3d6000fd5b505050505050565b61135461134d61175d565b8383611caa565b5050565b600760009054906101000a900473ffffffffffffffffffffffffffffffffffffffff1673ffffffffffffffffffffffffffffffffffffffff163373ffffffffffffffffffffffffffffffffffffffff16146113e8576040517f08c379a00000000000000000000000000000000000000000000000000000000081526004016113df90613467565b60405180910390fd5b8060088190555050565b6113fd8484846107ce565b61140984848484611e19565b50505050565b606061141a82611698565b50600060066000848152602001908152602001600020805461143b906130df565b80601f0160208091040260200160405190810160405280929190818152602001828054611467906130df565b80156114b45780601f10611489576101008083540402835291602001916114b4565b820191906000526020600020905b81548152906001019060200180831161149757829003601f168201915b5050505050905060006114c5611fd0565b905060008151036114da57819250505061151d565b60008251111561150f5780826040516020016114f79291906134c3565b6040516020818303038152906040529250505061151d565b61151884611fe7565b925050505b919050565b6000600560008473ffffffffffffffffffffffffffffffffffffffff1673ffffffffffffffffffffffffffffffffffffffff16815260200190815260200160002060008373ffffffffffffffffffffffffffffffffffffffff1673ffffffffffffffffffffffffffffffffffffffff16815260200190815260200160002060009054906101000a900460ff16905092915050565b60007f80ac58cd000000000000000000000000000000000000000000000000000000007bffffffffffffffffffffffffffffffffffffffffffffffffffffffff1916827bffffffffffffffffffffffffffffffffffffffffffffffffffffffff1916148061168157507f5b5e139f000000000000000000000000000000000000000000000000000000007bffffffffffffffffffffffffffffffffffffffffffffffffffffffff1916827bffffffffffffffffffffffffffffffffffffffffffffffffffffffff1916145b80611691575061169082612050565b5b9050919050565b6000806116a4836120ba565b9050600073ffffffffffffffffffffffffffffffffffffffff168173ffffffffffffffffffffffffffffffffffffffff160361171757826040517f7e27328900000000000000000000000000000000000000000000000000000000815260040161170e91906128bc565b60405180910390fd5b80915050919050565b60006004600083815260200190815260200160002060009054906101000a900473ffffffffffffffffffffffffffffffffffffffff169050919050565b600033905090565b61177283838360016120f7565b505050565b600080611783846120ba565b9050600073ffffffffffffffffffffffffffffffffffffffff168373ffffffffffffffffffffffffffffffffffffffff16146117c5576117c48184866122bc565b5b600073ffffffffffffffffffffffffffffffffffffffff168173ffffffffffffffffffffffffffffffffffffffff1614611856576118076000856000806120f7565b6001600360008373ffffffffffffffffffffffffffffffffffffffff1673ffffffffffffffffffffffffffffffffffffffff168152602001908152602001600020600082825403925050819055505b600073ffffffffffffffffffffffffffffffffffffffff168573ffffffffffffffffffffffffffffffffffffffff16146118d9576001600360008773ffffffffffffffffffffffffffffffffffffffff1673ffffffffffffffffffffffffffffffffffffffff168152602001908152602001600020600082825401925050819055505b846002600086815260200190815260200160002060006101000a81548173ffffffffffffffffffffffffffffffffffffffff021916908373ffffffffffffffffffffffffffffffffffffffff160217905550838573ffffffffffffffffffffffffffffffffffffffff168273ffffffffffffffffffffffffffffffffffffffff167fddf252ad1be2c89b69c2b068fc378daa952ba7f163c4a11628f55a4df523b3ef60405160405180910390a4809150509392505050565b6119ab828260405180602001604052806000815250612380565b5050565b806006600084815260200190815260200160002090816119cf9190613693565b507ff8e1a15aba9398e019f0b49df1a4fde98ee17ae345cb5f6b5e2c27f5033e8ce7826040516119ff91906128bc565b60405180910390a15050565b6040518060a001604052808381526020013373ffffffffffffffffffffffffffffffffffffffff1681526020013373ffffffffffffffffffffffffffffffffffffffff16815260200182815260200160011515815250600b60008481526020019081526020016000206000820151816000015560208201518160010160006101000a81548173ffffffffffffffffffffffffffffffffffffffff021916908373ffffffffffffffffffffffffffffffffffffffff16021790555060408201518160020160006101000a81548173ffffffffffffffffffffffffffffffffffffffff021916908373ffffffffffffffffffffffffffffffffffffffff1602179055506060820151816003015560808201518160040160006101000a81548160ff0219169083151502179055509050505050565b600073ffffffffffffffffffffffffffffffffffffffff168273ffffffffffffffffffffffffffffffffffffffff1603611baf5760006040517f64a0ae92000000000000000000000000000000000000000000000000000000008152600401611ba69190612a23565b60405180910390fd5b6000611bbd83836000611777565b9050600073ffffffffffffffffffffffffffffffffffffffff168173ffffffffffffffffffffffffffffffffffffffff1603611c3057816040517f7e273289000000000000000000000000000000000000000000000000000000008152600401611c2791906128bc565b60405180910390fd5b8373ffffffffffffffffffffffffffffffffffffffff168173ffffffffffffffffffffffffffffffffffffffff1614611ca4578382826040517f64283d7b000000000000000000000000000000000000000000000000000000008152600401611c9b93929190613110565b60405180910390fd5b50505050565b600073ffffffffffffffffffffffffffffffffffffffff168273ffffffffffffffffffffffffffffffffffffffff1603611d1b57816040517f5b08ba18000000000000000000000000000000000000000000000000000000008152600401611d129190612a23565b60405180910390fd5b80600560008573ffffffffffffffffffffffffffffffffffffffff1673ffffffffffffffffffffffffffffffffffffffff16815260200190815260200160002060008473ffffffffffffffffffffffffffffffffffffffff1673ffffffffffffffffffffffffffffffffffffffff16815260200190815260200160002060006101000a81548160ff0219169083151502179055508173ffffffffffffffffffffffffffffffffffffffff168373ffffffffffffffffffffffffffffffffffffffff167f17307eab39ab6107e8899845ad3d59bd9653f200f220920489ca2b5937696c3183604051611e0c9190612888565b60405180910390a3505050565b60008373ffffffffffffffffffffffffffffffffffffffff163b1115611fca578273ffffffffffffffffffffffffffffffffffffffff1663150b7a02611e5d61175d565b8685856040518563ffffffff1660e01b8152600401611e7f94939291906137ba565b6020604051808303816000875af1925050508015611ebb57506040513d601f19601f82011682018060405250810190611eb8919061381b565b60015b611f3f573d8060008114611eeb576040519150601f19603f3d011682016040523d82523d6000602084013e611ef0565b606091505b506000815103611f3757836040517f64a0ae92000000000000000000000000000000000000000000000000000000008152600401611f2e9190612a23565b60405180910390fd5b805181602001fd5b63150b7a0260e01b7bffffffffffffffffffffffffffffffffffffffffffffffffffffffff1916817bffffffffffffffffffffffffffffffffffffffffffffffffffffffff191614611fc857836040517f64a0ae92000000000000000000000000000000000000000000000000000000008152600401611fbf9190612a23565b60405180910390fd5b505b50505050565b606060405180602001604052806000815250905090565b6060611ff282611698565b506000611ffd611fd0565b9050600081511161201d5760405180602001604052806000815250612048565b806120278461239c565b6040516020016120389291906134c3565b6040516020818303038152906040525b915050919050565b60007f01ffc9a7000000000000000000000000000000000000000000000000000000007bffffffffffffffffffffffffffffffffffffffffffffffffffffffff1916827bffffffffffffffffffffffffffffffffffffffffffffffffffffffff1916149050919050565b60006002600083815260200190815260200160002060009054906101000a900473ffffffffffffffffffffffffffffffffffffffff169050919050565b80806121305750600073ffffffffffffffffffffffffffffffffffffffff168273ffffffffffffffffffffffffffffffffffffffff1614155b1561226457600061214084611698565b9050600073ffffffffffffffffffffffffffffffffffffffff168373ffffffffffffffffffffffffffffffffffffffff16141580156121ab57508273ffffffffffffffffffffffffffffffffffffffff168173ffffffffffffffffffffffffffffffffffffffff1614155b80156121be57506121bc8184611522565b155b1561220057826040517fa9fbf51f0000000000000000000000000000000000000000000000000000000081526004016121f79190612a23565b60405180910390fd5b811561226257838573ffffffffffffffffffffffffffffffffffffffff168273ffffffffffffffffffffffffffffffffffffffff167f8c5be1e5ebec7d5bd14f71427d1e84f3dd0314c0f7b2291e5b200ac8c7c3b92560405160405180910390a45b505b836004600085815260200190815260200160002060006101000a81548173ffffffffffffffffffffffffffffffffffffffff021916908373ffffffffffffffffffffffffffffffffffffffff16021790555050505050565b6122c783838361246a565b61237b57600073ffffffffffffffffffffffffffffffffffffffff168373ffffffffffffffffffffffffffffffffffffffff160361233c57806040517f7e27328900000000000000000000000000000000000000000000000000000000815260040161233391906128bc565b60405180910390fd5b81816040517f177e802f000000000000000000000000000000000000000000000000000000008152600401612372929190613848565b60405180910390fd5b505050565b61238a838361252b565b6123976000848484611e19565b505050565b6060600060016123ab84612624565b01905060008167ffffffffffffffff8111156123ca576123c9612d59565b5b6040519080825280601f01601f1916602001820160405280156123fc5781602001600182028036833780820191505090505b509050600082602001820190505b60011561245f578080600190039150507f3031323334353637383961626364656600000000000000000000000000000000600a86061a8153600a858161245357612452613361565b5b0494506000850361240a575b819350505050919050565b60008073ffffffffffffffffffffffffffffffffffffffff168373ffffffffffffffffffffffffffffffffffffffff161415801561252257508273ffffffffffffffffffffffffffffffffffffffff168473ffffffffffffffffffffffffffffffffffffffff1614806124e357506124e28484611522565b5b8061252157508273ffffffffffffffffffffffffffffffffffffffff1661250983611720565b73ffffffffffffffffffffffffffffffffffffffff16145b5b90509392505050565b600073ffffffffffffffffffffffffffffffffffffffff168273ffffffffffffffffffffffffffffffffffffffff160361259d5760006040517f64a0ae920000000000000000000000000000000000000000000000000000000081526004016125949190612a23565b60405180910390fd5b60006125ab83836000611777565b9050600073ffffffffffffffffffffffffffffffffffffffff168173ffffffffffffffffffffffffffffffffffffffff161461261f5760006040517f73c6ac6e0000000000000000000000000000000000000000000000000000000081526004016126169190612a23565b60405180910390fd5b505050565b600080600090507a184f03e93ff9f4daa797ed6e38ed64bf6a1f0100000000000000008310612682577a184f03e93ff9f4daa797ed6e38ed64bf6a1f010000000000000000838161267857612677613361565b5b0492506040810190505b6d04ee2d6d415b85acef810000000083106126bf576d04ee2d6d415b85acef810000000083816126b5576126b4613361565b5b0492506020810190505b662386f26fc1000083106126ee57662386f26fc1000083816126e4576126e3613361565b5b0492506010810190505b6305f5e1008310612717576305f5e100838161270d5761270c613361565b5b0492506008810190505b612710831061273c57612710838161273257612731613361565b5b0492506004810190505b6064831061275f576064838161275557612754613361565b5b0492506002810190505b600a831061276e576001810190505b80915050919050565b6040518060a0016040528060008152602001600073ffffffffffffffffffffffffffffffffffffffff168152602001600073ffffffffffffffffffffffffffffffffffffffff168152602001600081526020016000151581525090565b6000604051905090565b600080fd5b600080fd5b60007fffffffff0000000000000000000000000000000000000000000000000000000082169050919050565b61281d816127e8565b811461282857600080fd5b50565b60008135905061283a81612814565b92915050565b600060208284031215612856576128556127de565b5b60006128648482850161282b565b91505092915050565b60008115159050919050565b6128828161286d565b82525050565b600060208201905061289d6000830184612879565b92915050565b6000819050919050565b6128b6816128a3565b82525050565b60006020820190506128d160008301846128ad565b92915050565b600081519050919050565b600082825260208201905092915050565b60005b838110156129115780820151818401526020810190506128f6565b60008484015250505050565b6000601f19601f8301169050919050565b6000612939826128d7565b61294381856128e2565b93506129538185602086016128f3565b61295c8161291d565b840191505092915050565b60006020820190508181036000830152612981818461292e565b905092915050565b612992816128a3565b811461299d57600080fd5b50565b6000813590506129af81612989565b92915050565b6000602082840312156129cb576129ca6127de565b5b60006129d9848285016129a0565b91505092915050565b600073ffffffffffffffffffffffffffffffffffffffff82169050919050565b6000612a0d826129e2565b9050919050565b612a1d81612a02565b82525050565b6000602082019050612a386000830184612a14565b92915050565b612a4781612a02565b8114612a5257600080fd5b50565b600081359050612a6481612a3e565b92915050565b60008060408385031215612a8157612a806127de565b5b6000612a8f85828601612a55565b9250506020612aa0858286016129a0565b9150509250929050565b612ab3816128a3565b82525050565b6000612ac4826129e2565b9050919050565b612ad481612ab9565b82525050565b612ae38161286d565b82525050565b60a082016000820151612aff6000850182612aaa565b506020820151612b126020850182612acb565b506040820151612b256040850182612acb565b506060820151612b386060850182612aaa565b506080820151612b4b6080850182612ada565b50505050565b600060a082019050612b666000830184612ae9565b92915050565b600080600060608486031215612b8557612b846127de565b5b6000612b9386828701612a55565b9350506020612ba486828701612a55565b9250506040612bb5868287016129a0565b9150509250925092565b600081519050919050565b600082825260208201905092915050565b6000819050602082019050919050565b60a082016000820151612c016000850182612aaa565b506020820151612c146020850182612acb565b506040820151612c276040850182612acb565b506060820151612c3a6060850182612aaa565b506080820151612c4d6080850182612ada565b50505050565b6000612c5f8383612beb565b60a08301905092915050565b6000602082019050919050565b6000612c8382612bbf565b612c8d8185612bca565b9350612c9883612bdb565b8060005b83811015612cc9578151612cb08882612c53565b9750612cbb83612c6b565b925050600181019050612c9c565b5085935050505092915050565b60006020820190508181036000830152612cf08184612c78565b905092915050565b612d0181612ab9565b82525050565b6000602082019050612d1c6000830184612cf8565b92915050565b600060208284031215612d3857612d376127de565b5b6000612d4684828501612a55565b91505092915050565b600080fd5b600080fd5b7f4e487b7100000000000000000000000000000000000000000000000000000000600052604160045260246000fd5b612d918261291d565b810181811067ffffffffffffffff82111715612db057612daf612d59565b5b80604052505050565b6000612dc36127d4565b9050612dcf8282612d88565b919050565b600067ffffffffffffffff821115612def57612dee612d59565b5b612df88261291d565b9050602081019050919050565b82818337600083830152505050565b6000612e27612e2284612dd4565b612db9565b905082815260208101848484011115612e4357612e42612d54565b5b612e4e848285612e05565b509392505050565b600082601f830112612e6b57612e6a612d4f565b5b8135612e7b848260208601612e14565b91505092915050565b60008060408385031215612e9b57612e9a6127de565b5b600083013567ffffffffffffffff811115612eb957612eb86127e3565b5b612ec585828601612e56565b9250506020612ed6858286016129a0565b9150509250929050565b612ee98161286d565b8114612ef457600080fd5b50565b600081359050612f0681612ee0565b92915050565b60008060408385031215612f2357612f226127de565b5b6000612f3185828601612a55565b9250506020612f4285828601612ef7565b9150509250929050565b600067ffffffffffffffff821115612f6757612f66612d59565b5b612f708261291d565b9050602081019050919050565b6000612f90612f8b84612f4c565b612db9565b905082815260208101848484011115612fac57612fab612d54565b5b612fb7848285612e05565b509392505050565b600082601f830112612fd457612fd3612d4f565b5b8135612fe4848260208601612f7d565b91505092915050565b60008060008060808587031215613007576130066127de565b5b600061301587828801612a55565b945050602061302687828801612a55565b9350506040613037878288016129a0565b925050606085013567ffffffffffffffff811115613058576130576127e3565b5b61306487828801612fbf565b91505092959194509250565b60008060408385031215613087576130866127de565b5b600061309585828601612a55565b92505060206130a685828601612a55565b9150509250929050565b7f4e487b7100000000000000000000000000000000000000000000000000000000600052602260045260246000fd5b600060028204905060018216806130f757607f821691505b60208210810361310a576131096130b0565b5b50919050565b60006060820190506131256000830186612a14565b61313260208301856128ad565b61313f6040830184612a14565b949350505050565b7f4e487b7100000000000000000000000000000000000000000000000000000000600052601160045260246000fd5b6000613181826128a3565b915061318c836128a3565b92508282019050808211156131a4576131a3613147565b5b92915050565b60006131b5826128a3565b91507fffffffffffffffffffffffffffffffffffffffffffffffffffffffffffffffff82036131e7576131e6613147565b5b600182019050919050565b7f4e487b7100000000000000000000000000000000000000000000000000000000600052603260045260246000fd5b7f5072696365206d7573742062652067726561746572207468616e207a65726f00600082015250565b6000613257601f836128e2565b915061326282613221565b602082019050919050565b600060208201905081810360008301526132868161324a565b9050919050565b7f506c65617365207375626d6974207468652061736b696e67207072696365207460008201527f6f20636f6d706c65746520746865207075726368617365000000000000000000602082015250565b60006132e96037836128e2565b91506132f48261328d565b604082019050919050565b60006020820190508181036000830152613318816132dc565b9050919050565b600061332a826128a3565b9150613335836128a3565b9250828202613343816128a3565b9150828204841483151761335a57613359613147565b5b5092915050565b7f4e487b7100000000000000000000000000000000000000000000000000000000600052601260045260246000fd5b600061339b826128a3565b91506133a6836128a3565b9250826133b6576133b5613361565b5b828204905092915050565b60006133cc826128a3565b91506133d7836128a3565b92508282039050818111156133ef576133ee613147565b5b92915050565b7f4f6e6c79206f776e65722063616e2063616c6c20746869732066756e6374696f60008201527f6e00000000000000000000000000000000000000000000000000000000000000602082015250565b60006134516021836128e2565b915061345c826133f5565b604082019050919050565b6000602082019050818103600083015261348081613444565b9050919050565b600081905092915050565b600061349d826128d7565b6134a78185613487565b93506134b78185602086016128f3565b80840191505092915050565b60006134cf8285613492565b91506134db8284613492565b91508190509392505050565b60008190508160005260206000209050919050565b60006020601f8301049050919050565b600082821b905092915050565b6000600883026135497fffffffffffffffffffffffffffffffffffffffffffffffffffffffffffffffff8261350c565b613553868361350c565b95508019841693508086168417925050509392505050565b6000819050919050565b600061359061358b613586846128a3565b61356b565b6128a3565b9050919050565b6000819050919050565b6135aa83613575565b6135be6135b682613597565b848454613519565b825550505050565b600090565b6135d36135c6565b6135de8184846135a1565b505050565b5b81811015613602576135f76000826135cb565b6001810190506135e4565b5050565b601f82111561364757613618816134e7565b613621846134fc565b81016020851015613630578190505b61364461363c856134fc565b8301826135e3565b50505b505050565b600082821c905092915050565b600061366a6000198460080261364c565b1980831691505092915050565b60006136838383613659565b9150826002028217905092915050565b61369c826128d7565b67ffffffffffffffff8111156136b5576136b4612d59565b5b6136bf82546130df565b6136ca828285613606565b600060209050601f8311600181146136fd57600084156136eb578287015190505b6136f58582613677565b86555061375d565b601f19841661370b866134e7565b60005b828110156137335784890151825560018201915060208501945060208101905061370e565b86831015613750578489015161374c601f891682613659565b8355505b6001600288020188555050505b505050505050565b600081519050919050565b600082825260208201905092915050565b600061378c82613765565b6137968185613770565b93506137a68185602086016128f3565b6137af8161291d565b840191505092915050565b60006080820190506137cf6000830187612a14565b6137dc6020830186612a14565b6137e960408301856128ad565b81810360608301526137fb8184613781565b905095945050505050565b60008151905061381581612814565b92915050565b600060208284031215613831576138306127de565b5b600061383f84828501613806565b91505092915050565b600060408201905061385d6000830185612a14565b61386a60208301846128ad565b939250505056fea26469706673582212203f534f3dbd02e2018a5d6814cffc882cadc596654066d7d04f04fa182e35aa2b64736f6c63430008180033",
  "linkReferences": {},
  "deployedLinkReferences": {}
}